{
  "contractName": "BENTODelegate",
  "abi": [
    {
      "inputs": [],
      "payable": false,
      "stateMutability": "nonpayable",
      "type": "constructor"
    },
    {
      "anonymous": false,
      "inputs": [
        {
          "indexed": true,
          "internalType": "address",
          "name": "owner",
          "type": "address"
        },
        {
          "indexed": true,
          "internalType": "address",
          "name": "spender",
          "type": "address"
        },
        {
          "indexed": false,
          "internalType": "uint256",
          "name": "amount",
          "type": "uint256"
        }
      ],
      "name": "Approval",
      "type": "event"
    },
    {
      "anonymous": false,
      "inputs": [
        {
          "indexed": true,
          "internalType": "address",
          "name": "delegator",
          "type": "address"
        },
        {
          "indexed": true,
          "internalType": "address",
          "name": "fromDelegate",
          "type": "address"
        },
        {
          "indexed": true,
          "internalType": "address",
          "name": "toDelegate",
          "type": "address"
        }
      ],
      "name": "DelegateChanged",
      "type": "event"
    },
    {
      "anonymous": false,
      "inputs": [
        {
          "indexed": true,
          "internalType": "address",
          "name": "delegate",
          "type": "address"
        },
        {
          "indexed": false,
          "internalType": "uint256",
          "name": "previousBalance",
          "type": "uint256"
        },
        {
          "indexed": false,
          "internalType": "uint256",
          "name": "newBalance",
          "type": "uint256"
        }
      ],
      "name": "DelegateVotesChanged",
      "type": "event"
    },
    {
      "anonymous": false,
      "inputs": [
        {
          "indexed": false,
          "internalType": "address",
          "name": "to",
          "type": "address"
        },
        {
          "indexed": false,
          "internalType": "uint256",
          "name": "amount",
          "type": "uint256"
        }
      ],
      "name": "Mint",
      "type": "event"
    },
    {
      "anonymous": false,
      "inputs": [
        {
          "indexed": false,
          "internalType": "address",
          "name": "oldGov",
          "type": "address"
        },
        {
          "indexed": false,
          "internalType": "address",
          "name": "newGov",
          "type": "address"
        }
      ],
      "name": "NewGov",
      "type": "event"
    },
    {
      "anonymous": false,
      "inputs": [
        {
          "indexed": false,
          "internalType": "address",
          "name": "oldIncentivizer",
          "type": "address"
        },
        {
          "indexed": false,
          "internalType": "address",
          "name": "newIncentivizer",
          "type": "address"
        }
      ],
      "name": "NewIncentivizer",
      "type": "event"
    },
    {
      "anonymous": false,
      "inputs": [
        {
          "indexed": false,
          "internalType": "address",
          "name": "oldPendingGov",
          "type": "address"
        },
        {
          "indexed": false,
          "internalType": "address",
          "name": "newPendingGov",
          "type": "address"
        }
      ],
      "name": "NewPendingGov",
      "type": "event"
    },
    {
      "anonymous": false,
      "inputs": [
        {
          "indexed": false,
          "internalType": "address",
          "name": "oldRebaser",
          "type": "address"
        },
        {
          "indexed": false,
          "internalType": "address",
          "name": "newRebaser",
          "type": "address"
        }
      ],
      "name": "NewRebaser",
      "type": "event"
    },
    {
      "anonymous": false,
      "inputs": [
        {
          "indexed": false,
          "internalType": "uint256",
          "name": "epoch",
          "type": "uint256"
        },
        {
          "indexed": false,
          "internalType": "uint256",
          "name": "prevBentosScalingFactor",
          "type": "uint256"
        },
        {
          "indexed": false,
          "internalType": "uint256",
          "name": "newBentosScalingFactor",
          "type": "uint256"
        }
      ],
      "name": "Rebase",
      "type": "event"
    },
    {
      "anonymous": false,
      "inputs": [
        {
          "indexed": true,
          "internalType": "address",
          "name": "from",
          "type": "address"
        },
        {
          "indexed": true,
          "internalType": "address",
          "name": "to",
          "type": "address"
        },
        {
          "indexed": false,
          "internalType": "uint256",
          "name": "amount",
          "type": "uint256"
        }
      ],
      "name": "Transfer",
      "type": "event"
    },
    {
      "constant": true,
      "inputs": [],
      "name": "BASE",
      "outputs": [
        {
          "internalType": "uint256",
          "name": "",
          "type": "uint256"
        }
      ],
      "payable": false,
      "stateMutability": "view",
      "type": "function"
    },
    {
      "constant": true,
      "inputs": [],
      "name": "DELEGATION_TYPEHASH",
      "outputs": [
        {
          "internalType": "bytes32",
          "name": "",
          "type": "bytes32"
        }
      ],
      "payable": false,
      "stateMutability": "view",
      "type": "function"
    },
    {
      "constant": true,
      "inputs": [],
      "name": "DOMAIN_TYPEHASH",
      "outputs": [
        {
          "internalType": "bytes32",
          "name": "",
          "type": "bytes32"
        }
      ],
      "payable": false,
      "stateMutability": "view",
      "type": "function"
    },
    {
      "constant": false,
      "inputs": [],
      "name": "_acceptGov",
      "outputs": [],
      "payable": false,
      "stateMutability": "nonpayable",
      "type": "function"
    },
    {
      "constant": false,
      "inputs": [
        {
          "internalType": "address",
          "name": "incentivizer_",
          "type": "address"
        }
      ],
      "name": "_setIncentivizer",
      "outputs": [],
      "payable": false,
      "stateMutability": "nonpayable",
      "type": "function"
    },
    {
      "constant": false,
      "inputs": [
        {
          "internalType": "address",
          "name": "pendingGov_",
          "type": "address"
        }
      ],
      "name": "_setPendingGov",
      "outputs": [],
      "payable": false,
      "stateMutability": "nonpayable",
      "type": "function"
    },
    {
      "constant": false,
      "inputs": [
        {
          "internalType": "address",
          "name": "rebaser_",
          "type": "address"
        }
      ],
      "name": "_setRebaser",
      "outputs": [],
      "payable": false,
      "stateMutability": "nonpayable",
      "type": "function"
    },
    {
      "constant": true,
      "inputs": [
        {
          "internalType": "address",
          "name": "owner_",
          "type": "address"
        },
        {
          "internalType": "address",
          "name": "spender",
          "type": "address"
        }
      ],
      "name": "allowance",
      "outputs": [
        {
          "internalType": "uint256",
          "name": "",
          "type": "uint256"
        }
      ],
      "payable": false,
      "stateMutability": "view",
      "type": "function"
    },
    {
      "constant": false,
      "inputs": [
        {
          "internalType": "address",
          "name": "spender",
          "type": "address"
        },
        {
          "internalType": "uint256",
          "name": "value",
          "type": "uint256"
        }
      ],
      "name": "approve",
      "outputs": [
        {
          "internalType": "bool",
          "name": "",
          "type": "bool"
        }
      ],
      "payable": false,
      "stateMutability": "nonpayable",
      "type": "function"
    },
    {
      "constant": true,
      "inputs": [
        {
          "internalType": "address",
          "name": "who",
          "type": "address"
        }
      ],
      "name": "balanceOf",
      "outputs": [
        {
          "internalType": "uint256",
          "name": "",
          "type": "uint256"
        }
      ],
      "payable": false,
      "stateMutability": "view",
      "type": "function"
    },
    {
      "constant": true,
      "inputs": [
        {
          "internalType": "address",
          "name": "who",
          "type": "address"
        }
      ],
      "name": "balanceOfUnderlying",
      "outputs": [
        {
          "internalType": "uint256",
          "name": "",
          "type": "uint256"
        }
      ],
      "payable": false,
      "stateMutability": "view",
      "type": "function"
    },
    {
      "constant": true,
      "inputs": [],
      "name": "bentosScalingFactor",
      "outputs": [
        {
          "internalType": "uint256",
          "name": "",
          "type": "uint256"
        }
      ],
      "payable": false,
      "stateMutability": "view",
      "type": "function"
    },
    {
      "constant": true,
      "inputs": [
        {
          "internalType": "address",
          "name": "",
          "type": "address"
        },
        {
          "internalType": "uint32",
          "name": "",
          "type": "uint32"
        }
      ],
      "name": "checkpoints",
      "outputs": [
        {
          "internalType": "uint32",
          "name": "fromBlock",
          "type": "uint32"
        },
        {
          "internalType": "uint256",
          "name": "votes",
          "type": "uint256"
        }
      ],
      "payable": false,
      "stateMutability": "view",
      "type": "function"
    },
    {
      "constant": true,
      "inputs": [],
      "name": "decimals",
      "outputs": [
        {
          "internalType": "uint8",
          "name": "",
          "type": "uint8"
        }
      ],
      "payable": false,
      "stateMutability": "view",
      "type": "function"
    },
    {
      "constant": false,
      "inputs": [
        {
          "internalType": "address",
          "name": "spender",
          "type": "address"
        },
        {
          "internalType": "uint256",
          "name": "subtractedValue",
          "type": "uint256"
        }
      ],
      "name": "decreaseAllowance",
      "outputs": [
        {
          "internalType": "bool",
          "name": "",
          "type": "bool"
        }
      ],
      "payable": false,
      "stateMutability": "nonpayable",
      "type": "function"
    },
    {
      "constant": false,
      "inputs": [
        {
          "internalType": "address",
          "name": "delegatee",
          "type": "address"
        }
      ],
      "name": "delegate",
      "outputs": [],
      "payable": false,
      "stateMutability": "nonpayable",
      "type": "function"
    },
    {
      "constant": false,
      "inputs": [
        {
          "internalType": "address",
          "name": "delegatee",
          "type": "address"
        },
        {
          "internalType": "uint256",
          "name": "nonce",
          "type": "uint256"
        },
        {
          "internalType": "uint256",
          "name": "expiry",
          "type": "uint256"
        },
        {
          "internalType": "uint8",
          "name": "v",
          "type": "uint8"
        },
        {
          "internalType": "bytes32",
          "name": "r",
          "type": "bytes32"
        },
        {
          "internalType": "bytes32",
          "name": "s",
          "type": "bytes32"
        }
      ],
      "name": "delegateBySig",
      "outputs": [],
      "payable": false,
      "stateMutability": "nonpayable",
      "type": "function"
    },
    {
      "constant": true,
      "inputs": [
        {
          "internalType": "address",
          "name": "delegator",
          "type": "address"
        }
      ],
      "name": "delegates",
      "outputs": [
        {
          "internalType": "address",
          "name": "",
          "type": "address"
        }
      ],
      "payable": false,
      "stateMutability": "view",
      "type": "function"
    },
    {
      "constant": true,
      "inputs": [
        {
          "internalType": "address",
          "name": "account",
          "type": "address"
        }
      ],
      "name": "getCurrentVotes",
      "outputs": [
        {
          "internalType": "uint256",
          "name": "",
          "type": "uint256"
        }
      ],
      "payable": false,
      "stateMutability": "view",
      "type": "function"
    },
    {
      "constant": true,
      "inputs": [
        {
          "internalType": "address",
          "name": "account",
          "type": "address"
        },
        {
          "internalType": "uint256",
          "name": "blockNumber",
          "type": "uint256"
        }
      ],
      "name": "getPriorVotes",
      "outputs": [
        {
          "internalType": "uint256",
          "name": "",
          "type": "uint256"
        }
      ],
      "payable": false,
      "stateMutability": "view",
      "type": "function"
    },
    {
      "constant": true,
      "inputs": [],
      "name": "gov",
      "outputs": [
        {
          "internalType": "address",
          "name": "",
          "type": "address"
        }
      ],
      "payable": false,
      "stateMutability": "view",
      "type": "function"
    },
    {
      "constant": true,
      "inputs": [],
      "name": "implementation",
      "outputs": [
        {
          "internalType": "address",
          "name": "",
          "type": "address"
        }
      ],
      "payable": false,
      "stateMutability": "view",
      "type": "function"
    },
    {
      "constant": true,
      "inputs": [],
      "name": "incentivizer",
      "outputs": [
        {
          "internalType": "address",
          "name": "",
          "type": "address"
        }
      ],
      "payable": false,
      "stateMutability": "view",
      "type": "function"
    },
    {
      "constant": false,
      "inputs": [
        {
          "internalType": "address",
          "name": "spender",
          "type": "address"
        },
        {
          "internalType": "uint256",
          "name": "addedValue",
          "type": "uint256"
        }
      ],
      "name": "increaseAllowance",
      "outputs": [
        {
          "internalType": "bool",
          "name": "",
          "type": "bool"
        }
      ],
      "payable": false,
      "stateMutability": "nonpayable",
      "type": "function"
    },
    {
      "constant": true,
      "inputs": [],
      "name": "initSupply",
      "outputs": [
        {
          "internalType": "uint256",
          "name": "",
          "type": "uint256"
        }
      ],
      "payable": false,
      "stateMutability": "view",
      "type": "function"
    },
    {
      "constant": false,
      "inputs": [
        {
          "internalType": "string",
          "name": "name_",
          "type": "string"
        },
        {
          "internalType": "string",
          "name": "symbol_",
          "type": "string"
        },
        {
          "internalType": "uint8",
          "name": "decimals_",
          "type": "uint8"
        }
      ],
      "name": "initialize",
      "outputs": [],
      "payable": false,
      "stateMutability": "nonpayable",
      "type": "function"
    },
    {
      "constant": false,
      "inputs": [
        {
          "internalType": "string",
          "name": "name_",
          "type": "string"
        },
        {
          "internalType": "string",
          "name": "symbol_",
          "type": "string"
        },
        {
          "internalType": "uint8",
          "name": "decimals_",
          "type": "uint8"
        },
        {
          "internalType": "address",
          "name": "initial_owner",
          "type": "address"
        },
        {
          "internalType": "uint256",
          "name": "initSupply_",
          "type": "uint256"
        }
      ],
      "name": "initialize",
      "outputs": [],
      "payable": false,
      "stateMutability": "nonpayable",
      "type": "function"
    },
    {
      "constant": true,
      "inputs": [],
      "name": "internalDecimals",
      "outputs": [
        {
          "internalType": "uint256",
          "name": "",
          "type": "uint256"
        }
      ],
      "payable": false,
      "stateMutability": "view",
      "type": "function"
    },
    {
      "constant": true,
      "inputs": [],
      "name": "maxScalingFactor",
      "outputs": [
        {
          "internalType": "uint256",
          "name": "",
          "type": "uint256"
        }
      ],
      "payable": false,
      "stateMutability": "view",
      "type": "function"
    },
    {
      "constant": false,
      "inputs": [
        {
          "internalType": "address",
          "name": "to",
          "type": "address"
        },
        {
          "internalType": "uint256",
          "name": "amount",
          "type": "uint256"
        }
      ],
      "name": "mint",
      "outputs": [
        {
          "internalType": "bool",
          "name": "",
          "type": "bool"
        }
      ],
      "payable": false,
      "stateMutability": "nonpayable",
      "type": "function"
    },
    {
      "constant": true,
      "inputs": [],
      "name": "name",
      "outputs": [
        {
          "internalType": "string",
          "name": "",
          "type": "string"
        }
      ],
      "payable": false,
      "stateMutability": "view",
      "type": "function"
    },
    {
      "constant": true,
      "inputs": [
        {
          "internalType": "address",
          "name": "",
          "type": "address"
        }
      ],
      "name": "nonces",
      "outputs": [
        {
          "internalType": "uint256",
          "name": "",
          "type": "uint256"
        }
      ],
      "payable": false,
      "stateMutability": "view",
      "type": "function"
    },
    {
      "constant": true,
      "inputs": [
        {
          "internalType": "address",
          "name": "",
          "type": "address"
        }
      ],
      "name": "numCheckpoints",
      "outputs": [
        {
          "internalType": "uint32",
          "name": "",
          "type": "uint32"
        }
      ],
      "payable": false,
      "stateMutability": "view",
      "type": "function"
    },
    {
      "constant": true,
      "inputs": [],
      "name": "pendingGov",
      "outputs": [
        {
          "internalType": "address",
          "name": "",
          "type": "address"
        }
      ],
      "payable": false,
      "stateMutability": "view",
      "type": "function"
    },
    {
      "constant": false,
      "inputs": [
        {
          "internalType": "uint256",
          "name": "epoch",
          "type": "uint256"
        },
        {
          "internalType": "uint256",
          "name": "indexDelta",
          "type": "uint256"
        },
        {
          "internalType": "bool",
          "name": "positive",
          "type": "bool"
        }
      ],
      "name": "rebase",
      "outputs": [
        {
          "internalType": "uint256",
          "name": "",
          "type": "uint256"
        }
      ],
      "payable": false,
      "stateMutability": "nonpayable",
      "type": "function"
    },
    {
      "constant": true,
      "inputs": [],
      "name": "rebaser",
      "outputs": [
        {
          "internalType": "address",
          "name": "",
          "type": "address"
        }
      ],
      "payable": false,
      "stateMutability": "view",
      "type": "function"
    },
    {
      "constant": true,
      "inputs": [],
      "name": "symbol",
      "outputs": [
        {
          "internalType": "string",
          "name": "",
          "type": "string"
        }
      ],
      "payable": false,
      "stateMutability": "view",
      "type": "function"
    },
    {
      "constant": true,
      "inputs": [],
      "name": "totalSupply",
      "outputs": [
        {
          "internalType": "uint256",
          "name": "",
          "type": "uint256"
        }
      ],
      "payable": false,
      "stateMutability": "view",
      "type": "function"
    },
    {
      "constant": false,
      "inputs": [
        {
          "internalType": "address",
          "name": "to",
          "type": "address"
        },
        {
          "internalType": "uint256",
          "name": "value",
          "type": "uint256"
        }
      ],
      "name": "transfer",
      "outputs": [
        {
          "internalType": "bool",
          "name": "",
          "type": "bool"
        }
      ],
      "payable": false,
      "stateMutability": "nonpayable",
      "type": "function"
    },
    {
      "constant": false,
      "inputs": [
        {
          "internalType": "address",
          "name": "from",
          "type": "address"
        },
        {
          "internalType": "address",
          "name": "to",
          "type": "address"
        },
        {
          "internalType": "uint256",
          "name": "value",
          "type": "uint256"
        }
      ],
      "name": "transferFrom",
      "outputs": [
        {
          "internalType": "bool",
          "name": "",
          "type": "bool"
        }
      ],
      "payable": false,
      "stateMutability": "nonpayable",
      "type": "function"
    },
    {
      "constant": false,
      "inputs": [
        {
          "internalType": "bytes",
          "name": "data",
          "type": "bytes"
        }
      ],
      "name": "_becomeImplementation",
      "outputs": [],
      "payable": false,
      "stateMutability": "nonpayable",
      "type": "function"
    },
    {
      "constant": false,
      "inputs": [],
      "name": "_resignImplementation",
      "outputs": [],
      "payable": false,
      "stateMutability": "nonpayable",
      "type": "function"
    }
  ],
  "bytecode": "0x608060405234801561001057600080fd5b50613176806100206000396000f3fe608060405234801561001057600080fd5b50600436106102de5760003560e01c80636c94522111610186578063987ae4c6116100e3578063c3cda52011610097578063ec342ad011610071578063ec342ad014610ba7578063f1127ed814610baf578063fa8f345514610c0e576102de565b8063c3cda52014610b10578063dd62ed3e14610b64578063e7a324dc14610b9f576102de565b8063a457c2d7116100c8578063a457c2d714610a6b578063a9059cbb14610aa4578063b4b5ea5714610add576102de565b8063987ae4c614610a3057806398dca21014610a38576102de565b8063782d6fe11161013a5780637ecebe001161011f5780637ecebe00146109ed57806395d89b4114610a2057806397d63f9314610a28576102de565b8063782d6fe1146109895780637af548c1146109c2576102de565b80636fcfff451161016b5780636fcfff45146108d757806370a082311461092357806373f03dff14610956576102de565b80636c9452211461077e5780636fc6407c146108cf576102de565b8063252408101161023f5780634bda2e20116101f35780635c19a95c116101cd5780635c19a95c1461073b5780635c60da1b1461076e57806364dd48f514610776576102de565b80634bda2e201461065a57806356e6772814610662578063587cde1e14610708576102de565b8063395093511161022457806339509351146105b55780633af9e669146105ee57806340c10f1914610621576102de565b8063252408101461058f578063313ce56714610597576102de565b8063153ab5051161029657806318160ddd1161027b57806318160ddd1461053c57806320606b701461054457806323b872dd1461054c576102de565b8063153ab505146104005780631624f6c61461040a576102de565b806311d3e6c4116102c757806311d3e6c4146103ad57806311fd8a83146103c757806312d43a51146103f8576102de565b806306fdde03146102e3578063095ea7b314610360575b600080fd5b6102eb610c41565b6040805160208082528351818301528351919283929083019185019080838360005b8381101561032557818101518382015260200161030d565b50505050905090810190601f1680156103525780820380516001836020036101000a031916815260200191505b509250505060405180910390f35b6103996004803603604081101561037657600080fd5b5073ffffffffffffffffffffffffffffffffffffffff8135169060200135610cec565b604080519115158252519081900360200190f35b6103b5610d60565b60408051918252519081900360200190f35b6103cf610d70565b6040805173ffffffffffffffffffffffffffffffffffffffff9092168252519081900360200190f35b6103cf610d8c565b610408610dad565b005b6104086004803603606081101561042057600080fd5b81019060208101813564010000000081111561043b57600080fd5b82018360208201111561044d57600080fd5b8035906020019184600183028401116401000000008311171561046f57600080fd5b91908080601f01602080910402602001604051908101604052809392919081815260200183838082843760009201919091525092959493602081019350359150506401000000008111156104c257600080fd5b8201836020820111156104d457600080fd5b803590602001918460018302840111640100000000831117156104f657600080fd5b91908080601f0160208091040260200160405190810160405280939291908181526020018383808284376000920191909152509295505050903560ff169150610e249050565b6103b5610ef1565b6103b5610f04565b6103996004803603606081101561056257600080fd5b5073ffffffffffffffffffffffffffffffffffffffff813581169160208101359091169060400135610f1f565b6103cf611131565b61059f61114d565b6040805160ff9092168252519081900360200190f35b610399600480360360408110156105cb57600080fd5b5073ffffffffffffffffffffffffffffffffffffffff8135169060200135611156565b6103b56004803603602081101561060457600080fd5b503573ffffffffffffffffffffffffffffffffffffffff16611209565b6103996004803603604081101561063757600080fd5b5073ffffffffffffffffffffffffffffffffffffffff8135169060200135611231565b610408611316565b6104086004803603602081101561067857600080fd5b81019060208101813564010000000081111561069357600080fd5b8201836020820111156106a557600080fd5b803590602001918460018302840111640100000000831117156106c757600080fd5b91908080601f016020809104026020016040519081016040528093929190818152602001838380828437600092019190915250929550611459945050505050565b6103cf6004803603602081101561071e57600080fd5b503573ffffffffffffffffffffffffffffffffffffffff166114d1565b6104086004803603602081101561075157600080fd5b503573ffffffffffffffffffffffffffffffffffffffff166114fc565b6103cf611506565b6103b5611522565b610408600480360360a081101561079457600080fd5b8101906020810181356401000000008111156107af57600080fd5b8201836020820111156107c157600080fd5b803590602001918460018302840111640100000000831117156107e357600080fd5b91908080601f016020809104026020016040519081016040528093929190818152602001838380828437600092019190915250929594936020810193503591505064010000000081111561083657600080fd5b82018360208201111561084857600080fd5b8035906020019184600183028401116401000000008311171561086a57600080fd5b91908080601f0160208091040260200160405190810160405280939291908181526020018383808284376000920191909152509295505050813560ff16925050602081013573ffffffffffffffffffffffffffffffffffffffff169060400135611530565b6103cf61162b565b61090a600480360360208110156108ed57600080fd5b503573ffffffffffffffffffffffffffffffffffffffff16611647565b6040805163ffffffff9092168252519081900360200190f35b6103b56004803603602081101561093957600080fd5b503573ffffffffffffffffffffffffffffffffffffffff1661165f565b6104086004803603602081101561096c57600080fd5b503573ffffffffffffffffffffffffffffffffffffffff166116aa565b6103b56004803603604081101561099f57600080fd5b5073ffffffffffffffffffffffffffffffffffffffff813516906020013561175b565b6103b5600480360360608110156109d857600080fd5b50803590602081013590604001351515611a25565b6103b560048036036020811015610a0357600080fd5b503573ffffffffffffffffffffffffffffffffffffffff16611b9b565b6102eb611bad565b6103b5611c23565b6103b5611c29565b61040860048036036020811015610a4e57600080fd5b503573ffffffffffffffffffffffffffffffffffffffff16611c2f565b61039960048036036040811015610a8157600080fd5b5073ffffffffffffffffffffffffffffffffffffffff8135169060200135611ce0565b61039960048036036040811015610aba57600080fd5b5073ffffffffffffffffffffffffffffffffffffffff8135169060200135611e03565b6103b560048036036020811015610af357600080fd5b503573ffffffffffffffffffffffffffffffffffffffff16611f7a565b610408600480360360c0811015610b2657600080fd5b5073ffffffffffffffffffffffffffffffffffffffff8135169060208101359060408101359060ff6060820135169060808101359060a00135612015565b6103b560048036036040811015610b7a57600080fd5b5073ffffffffffffffffffffffffffffffffffffffff813581169160200135166123cc565b6103b5612404565b6103b561241f565b610bee60048036036040811015610bc557600080fd5b50803573ffffffffffffffffffffffffffffffffffffffff16906020013563ffffffff1661242b565b6040805163ffffffff909316835260208301919091528051918290030190f35b61040860048036036020811015610c2457600080fd5b503573ffffffffffffffffffffffffffffffffffffffff16612458565b60018054604080516020600284861615610100027fffffffffffffffffffffffffffffffffffffffffffffffffffffffffffffffff0190941693909304601f81018490048402820184019092528181529291830182828015610ce45780601f10610cb957610100808354040283529160200191610ce4565b820191906000526020600020905b815481529060010190602001808311610cc757829003601f168201915b505050505081565b336000818152600a6020908152604080832073ffffffffffffffffffffffffffffffffffffffff8716808552908352818420869055815186815291519394909390927f8c5be1e5ebec7d5bd14f71427d1e84f3dd0314c0f7b2291e5b200ac8c7c3b925928290030190a35060015b92915050565b6000610d6a612509565b90505b90565b60055473ffffffffffffffffffffffffffffffffffffffff1681565b600354610100900473ffffffffffffffffffffffffffffffffffffffff1681565b600354610100900473ffffffffffffffffffffffffffffffffffffffff163314610e22576040517f08c379a000000000000000000000000000000000000000000000000000000000815260040180806020018281038252602b815260200180612fcf602b913960400191505060405180910390fd5b565b60085415610e9357604080517f08c379a000000000000000000000000000000000000000000000000000000000815260206004820152601360248201527f616c726561647920696e697469616c697a656400000000000000000000000000604482015290519081900360640190fd5b8251610ea6906001906020860190612ed0565b508151610eba906002906020850190612ed0565b50600380547fffffffffffffffffffffffffffffffffffffffffffffffffffffffffffffff001660ff929092169190911790555050565b600754600090610d6a90620f424061253c565b60405180604361308182396043019050604051809103902081565b60008273ffffffffffffffffffffffffffffffffffffffff8116610f4257600080fd5b73ffffffffffffffffffffffffffffffffffffffff8116301415610f6557600080fd5b73ffffffffffffffffffffffffffffffffffffffff85166000908152600a60209081526040808320338452909152902054610fa6908463ffffffff61257e16565b73ffffffffffffffffffffffffffffffffffffffff86166000908152600a6020908152604080832033845290915281209190915560085461100790610ffb8669d3c21bcecceda100000063ffffffff6125c016565b9063ffffffff61253c16565b73ffffffffffffffffffffffffffffffffffffffff8716600090815260096020526040902054909150611040908263ffffffff61257e16565b73ffffffffffffffffffffffffffffffffffffffff8088166000908152600960205260408082209390935590871681522054611082908263ffffffff61263316565b73ffffffffffffffffffffffffffffffffffffffff80871660008181526009602090815260409182902094909455805188815290519193928a16927fddf252ad1be2c89b69c2b068fc378daa952ba7f163c4a11628f55a4df523b3ef92918290030190a373ffffffffffffffffffffffffffffffffffffffff8087166000908152600c6020526040808220548884168352912054611125929182169116836126a7565b50600195945050505050565b60045473ffffffffffffffffffffffffffffffffffffffff1681565b60035460ff1681565b336000908152600a6020908152604080832073ffffffffffffffffffffffffffffffffffffffff86168452909152812054611197908363ffffffff61263316565b336000818152600a6020908152604080832073ffffffffffffffffffffffffffffffffffffffff89168085529083529281902085905580519485525191937f8c5be1e5ebec7d5bd14f71427d1e84f3dd0314c0f7b2291e5b200ac8c7c3b925929081900390910190a350600192915050565b73ffffffffffffffffffffffffffffffffffffffff1660009081526009602052604090205490565b60055460009073ffffffffffffffffffffffffffffffffffffffff16331480611271575060065473ffffffffffffffffffffffffffffffffffffffff1633145b806112985750600354610100900473ffffffffffffffffffffffffffffffffffffffff1633145b61130357604080517f08c379a000000000000000000000000000000000000000000000000000000000815260206004820152600a60248201527f6e6f74206d696e74657200000000000000000000000000000000000000000000604482015290519081900360640190fd5b61130d8383612899565b50600192915050565b60045473ffffffffffffffffffffffffffffffffffffffff16331461139c57604080517f08c379a000000000000000000000000000000000000000000000000000000000815260206004820152600860248201527f2170656e64696e67000000000000000000000000000000000000000000000000604482015290519081900360640190fd5b600380546004805473ffffffffffffffffffffffffffffffffffffffff8181166101009081027fffffffffffffffffffffff0000000000000000000000000000000000000000ff861617958690557fffffffffffffffffffffffff000000000000000000000000000000000000000090921690925560408051938290048316808552919094049091166020830152825190927f1f14cfc03e486d23acee577b07bc0b3b23f4888c91fcdba5e0fef5a2549d5523928290030190a150565b600354610100900473ffffffffffffffffffffffffffffffffffffffff1633146114ce576040517f08c379a000000000000000000000000000000000000000000000000000000000815260040180806020018281038252602b815260200180613056602b913960400191505060405180910390fd5b50565b73ffffffffffffffffffffffffffffffffffffffff9081166000908152600c60205260409020541690565b6114ce3382612a8f565b60105473ffffffffffffffffffffffffffffffffffffffff1681565b69d3c21bcecceda100000081565b6000811161159f57604080517f08c379a000000000000000000000000000000000000000000000000000000000815260206004820152600d60248201527f3020696e697420737570706c7900000000000000000000000000000000000000604482015290519081900360640190fd5b6115aa858585610e24565b6115d1670de0b6b3a764000069d3c21bcecceda10000005b8391900463ffffffff6125c016565b600b819055600755670de0b6b3a764000060088190556115fb9069d3c21bcecceda10000006115c2565b73ffffffffffffffffffffffffffffffffffffffff90921660009081526009602052604090209190915550505050565b60065473ffffffffffffffffffffffffffffffffffffffff1681565b600e6020526000908152604090205463ffffffff1681565b60085473ffffffffffffffffffffffffffffffffffffffff82166000908152600960205260408120549091610d5a9169d3c21bcecceda100000091610ffb919063ffffffff6125c016565b600354610100900473ffffffffffffffffffffffffffffffffffffffff1633146116d357600080fd5b6004805473ffffffffffffffffffffffffffffffffffffffff8381167fffffffffffffffffffffffff0000000000000000000000000000000000000000831681179093556040805191909216808252602082019390935281517f6163d5b9efd962645dd649e6e48a61bcb0f9df00997a2398b80d135a9ab0c61e929181900390910190a15050565b60004382106117b5576040517f08c379a0000000000000000000000000000000000000000000000000000000008152600401808060200182810382526028815260200180612f806028913960400191505060405180910390fd5b73ffffffffffffffffffffffffffffffffffffffff83166000908152600e602052604090205463ffffffff16806117f0576000915050610d5a565b73ffffffffffffffffffffffffffffffffffffffff84166000908152600d6020908152604080832063ffffffff7fffffffffffffffffffffffffffffffffffffffffffffffffffffffffffffffff8601811685529252909120541683106118b55773ffffffffffffffffffffffffffffffffffffffff84166000908152600d602090815260408083207fffffffffffffffffffffffffffffffffffffffffffffffffffffffffffffffff9490940163ffffffff16835292905220600101549050610d5a565b73ffffffffffffffffffffffffffffffffffffffff84166000908152600d6020908152604080832083805290915290205463ffffffff168310156118fd576000915050610d5a565b60007fffffffffffffffffffffffffffffffffffffffffffffffffffffffffffffffff82015b8163ffffffff168163ffffffff1611156119e157600282820363ffffffff1604810361194d612f4e565b5073ffffffffffffffffffffffffffffffffffffffff87166000908152600d6020908152604080832063ffffffff8086168552908352928190208151808301909252805490931680825260019093015491810191909152908714156119bc57602001519450610d5a9350505050565b805163ffffffff168711156119d3578193506119da565b6001820392505b5050611923565b5073ffffffffffffffffffffffffffffffffffffffff85166000908152600d6020908152604080832063ffffffff9094168352929052206001015491505092915050565b60055460009073ffffffffffffffffffffffffffffffffffffffff163314611a4c57600080fd5b82611a9d57600854604080518681526020810183905280820192909252517fc6642d24d84e7f3d36ca39f5cce10e75639d9b158d5193aa350e2f900653e4c09181900360600190a150600754611b94565b60085482611adb57611ad3670de0b6b3a7640000610ffb611ac4828863ffffffff61257e16565b6008549063ffffffff6125c016565b600855611b25565b6000611afc670de0b6b3a7640000610ffb611ac4828963ffffffff61263316565b9050611b06612509565b811015611b17576008819055611b23565b611b1f612509565b6008555b505b611b48670de0b6b3a7640000610ffb600854600b546125c090919063ffffffff16565b600755600854604080518781526020810184905280820192909252517fc6642d24d84e7f3d36ca39f5cce10e75639d9b158d5193aa350e2f900653e4c09181900360600190a150506007545b9392505050565b600f6020526000908152604090205481565b600280546040805160206001841615610100027fffffffffffffffffffffffffffffffffffffffffffffffffffffffffffffffff01909316849004601f81018490048402820184019092528181529291830182828015610ce45780601f10610cb957610100808354040283529160200191610ce4565b600b5481565b60085481565b600354610100900473ffffffffffffffffffffffffffffffffffffffff163314611c5857600080fd5b6006805473ffffffffffffffffffffffffffffffffffffffff8381167fffffffffffffffffffffffff0000000000000000000000000000000000000000831681179093556040805191909216808252602082019390935281517f2ee668ca7d17a9122dc00c0bfd73b684f2f7d681f17733cc02b294f69f1b3896929181900390910190a15050565b336000908152600a6020908152604080832073ffffffffffffffffffffffffffffffffffffffff86168452909152812054808310611d4e57336000908152600a6020908152604080832073ffffffffffffffffffffffffffffffffffffffff88168452909152812055611d90565b611d5e818463ffffffff61257e16565b336000908152600a6020908152604080832073ffffffffffffffffffffffffffffffffffffffff891684529091529020555b336000818152600a6020908152604080832073ffffffffffffffffffffffffffffffffffffffff89168085529083529281902054815190815290519293927f8c5be1e5ebec7d5bd14f71427d1e84f3dd0314c0f7b2291e5b200ac8c7c3b925929181900390910190a35060019392505050565b60008273ffffffffffffffffffffffffffffffffffffffff8116611e2657600080fd5b73ffffffffffffffffffffffffffffffffffffffff8116301415611e4957600080fd5b600854600090611e6d90610ffb8669d3c21bcecceda100000063ffffffff6125c016565b33600090815260096020526040902054909150611e90908263ffffffff61257e16565b336000908152600960205260408082209290925573ffffffffffffffffffffffffffffffffffffffff871681522054611ecf908263ffffffff61263316565b73ffffffffffffffffffffffffffffffffffffffff86166000818152600960209081526040918290209390935580518781529051919233927fddf252ad1be2c89b69c2b068fc378daa952ba7f163c4a11628f55a4df523b3ef9281900390910190a3336000908152600c60205260408082205473ffffffffffffffffffffffffffffffffffffffff88811684529190922054611f6f9282169116836126a7565b506001949350505050565b73ffffffffffffffffffffffffffffffffffffffff81166000908152600e602052604081205463ffffffff1680611fb2576000611b94565b73ffffffffffffffffffffffffffffffffffffffff83166000908152600d6020908152604080832063ffffffff7fffffffffffffffffffffffffffffffffffffffffffffffffffffffffffffffff86011684529091529020600101549392505050565b6000604051808061308160439139604301905060405180910390206001604051808280546001816001161561010002031660029004801561208d5780601f1061206b57610100808354040283529182019161208d565b820191906000526020600020905b815481529060010190602001808311612079575b505091505060405180910390206120a2612b34565b30604051602001808581526020018481526020018381526020018273ffffffffffffffffffffffffffffffffffffffff1673ffffffffffffffffffffffffffffffffffffffff16815260200194505050505060405160208183030381529060405280519060200120905060006040518080613108603a91396040805191829003603a01822060208084019190915273ffffffffffffffffffffffffffffffffffffffff8c1683830152606083018b905260808084018b90528251808503909101815260a0840183528051908201207f190100000000000000000000000000000000000000000000000000000000000060c085015260c2840187905260e2808501829052835180860390910181526101028501808552815191840191909120600091829052610122860180865281905260ff8c1661014287015261016286018b905261018286018a9052935191965092945091926001926101a280830193927fffffffffffffffffffffffffffffffffffffffffffffffffffffffffffffffe08301929081900390910190855afa158015612240573d6000803e3d6000fd5b50506040517fffffffffffffffffffffffffffffffffffffffffffffffffffffffffffffffe0015191505073ffffffffffffffffffffffffffffffffffffffff81166122d7576040517f08c379a0000000000000000000000000000000000000000000000000000000008152600401808060200182810382526027815260200180612ffa6027913960400191505060405180910390fd5b73ffffffffffffffffffffffffffffffffffffffff81166000908152600f60205260409020805460018101909155891461235c576040517f08c379a00000000000000000000000000000000000000000000000000000000081526004018080602001828103825260238152602001806130e56023913960400191505060405180910390fd5b874211156123b5576040517f08c379a0000000000000000000000000000000000000000000000000000000008152600401808060200182810382526027815260200180612fa86027913960400191505060405180910390fd5b6123bf818b612a8f565b505050505b505050505050565b73ffffffffffffffffffffffffffffffffffffffff9182166000908152600a6020908152604080832093909416825291909152205490565b60405180603a6131088239603a019050604051809103902081565b670de0b6b3a764000081565b600d6020908152600092835260408084209091529082529020805460019091015463ffffffff9091169082565b600354610100900473ffffffffffffffffffffffffffffffffffffffff16331461248157600080fd5b6005805473ffffffffffffffffffffffffffffffffffffffff8381167fffffffffffffffffffffffff0000000000000000000000000000000000000000831681179093556040805191909216808252602082019390935281517f51f448520e2183de499e224808a409ee01a1f380edb2e8497572320c15030545929181900390910190a15050565b6000600b547fffffffffffffffffffffffffffffffffffffffffffffffffffffffffffffffff8161253657fe5b04905090565b6000611b9483836040518060400160405280601a81526020017f536166654d6174683a206469766973696f6e206279207a65726f000000000000815250612b38565b6000611b9483836040518060400160405280601e81526020017f536166654d6174683a207375627472616374696f6e206f766572666c6f770000815250612bf4565b6000826125cf57506000610d5a565b828202828482816125dc57fe5b0414611b94576040517f08c379a00000000000000000000000000000000000000000000000000000000081526004018080602001828103825260218152602001806130c46021913960400191505060405180910390fd5b600082820183811015611b9457604080517f08c379a000000000000000000000000000000000000000000000000000000000815260206004820152601b60248201527f536166654d6174683a206164646974696f6e206f766572666c6f770000000000604482015290519081900360640190fd5b8173ffffffffffffffffffffffffffffffffffffffff168373ffffffffffffffffffffffffffffffffffffffff16141580156126e35750600081115b156128945773ffffffffffffffffffffffffffffffffffffffff8316156127c05773ffffffffffffffffffffffffffffffffffffffff83166000908152600e602052604081205463ffffffff16908161273d57600061279a565b73ffffffffffffffffffffffffffffffffffffffff85166000908152600d6020908152604080832063ffffffff7fffffffffffffffffffffffffffffffffffffffffffffffffffffffffffffffff87011684529091529020600101545b905060006127ae828563ffffffff61257e16565b90506127bc86848484612c68565b5050505b73ffffffffffffffffffffffffffffffffffffffff8216156128945773ffffffffffffffffffffffffffffffffffffffff82166000908152600e602052604081205463ffffffff169081612815576000612872565b73ffffffffffffffffffffffffffffffffffffffff84166000908152600d6020908152604080832063ffffffff7fffffffffffffffffffffffffffffffffffffffffffffffffffffffffffffffff87011684529091529020600101545b90506000612886828563ffffffff61263316565b90506123c485848484612c68565b505050565b6128b86128a982620f42406125c0565b6007549063ffffffff61263316565b6007556008546000906128df90610ffb8469d3c21bcecceda100000063ffffffff6125c016565b600b549091506128f5908263ffffffff61263316565b600b55612900612509565b600854111561297057604080517f08c379a000000000000000000000000000000000000000000000000000000000815260206004820152601a60248201527f6d6178207363616c696e6720666163746f7220746f6f206c6f77000000000000604482015290519081900360640190fd5b73ffffffffffffffffffffffffffffffffffffffff83166000908152600960205260409020546129a6908263ffffffff61263316565b73ffffffffffffffffffffffffffffffffffffffff841660008181526009602090815260408083209490945583518681529351929391927fddf252ad1be2c89b69c2b068fc378daa952ba7f163c4a11628f55a4df523b3ef9281900390910190a373ffffffffffffffffffffffffffffffffffffffff8084166000908152600c6020526040812054612a399216836126a7565b6040805173ffffffffffffffffffffffffffffffffffffffff851681526020810184905281517f0f6798a560793a54c3bcfe86a93cde1e73087d944c0ea20544137d4121396885929181900390910190a1505050565b73ffffffffffffffffffffffffffffffffffffffff8083166000818152600c6020818152604080842080546009845282862054949093528787167fffffffffffffffffffffffff00000000000000000000000000000000000000008416811790915590519190951694919391928592917f3134e8a2e6d97e929a7e54011ea5485d7d196dd5f0ba4d4ef95803e8e3fc257f9190a4612b2e8284836126a7565b50505050565b4690565b60008183612bde576040517f08c379a00000000000000000000000000000000000000000000000000000000081526004018080602001828103825283818151815260200191508051906020019080838360005b83811015612ba3578181015183820152602001612b8b565b50505050905090810190601f168015612bd05780820380516001836020036101000a031916815260200191505b509250505060405180910390fd5b506000838581612bea57fe5b0495945050505050565b60008184841115612c60576040517f08c379a0000000000000000000000000000000000000000000000000000000008152602060048201818152835160248401528351909283926044909101919085019080838360008315612ba3578181015183820152602001612b8b565b505050900390565b6000612c8c4360405180606001604052806035815260200161302160359139612e58565b905060008463ffffffff16118015612d00575073ffffffffffffffffffffffffffffffffffffffff85166000908152600d6020908152604080832063ffffffff7fffffffffffffffffffffffffffffffffffffffffffffffffffffffffffffffff8901811685529252909120548282169116145b15612d685773ffffffffffffffffffffffffffffffffffffffff85166000908152600d6020908152604080832063ffffffff7fffffffffffffffffffffffffffffffffffffffffffffffffffffffffffffffff89011684529091529020600101829055612e01565b60408051808201825263ffffffff8084168252602080830186815273ffffffffffffffffffffffffffffffffffffffff8a166000818152600d84528681208b861682528452868120955186549086167fffffffffffffffffffffffffffffffffffffffffffffffffffffffff000000009182161787559251600196870155908152600e9092529390208054928801909116919092161790555b6040805184815260208101849052815173ffffffffffffffffffffffffffffffffffffffff8816927fdec2bacdd2f05b59de34da9b523dff8be42e5e38e818c82fdb0bae774387a724928290030190a25050505050565b6000816401000000008410612ec8576040517f08c379a0000000000000000000000000000000000000000000000000000000008152602060048201818152835160248401528351909283926044909101919085019080838360008315612ba3578181015183820152602001612b8b565b509192915050565b828054600181600116156101000203166002900490600052602060002090601f016020900481019282601f10612f1157805160ff1916838001178555612f3e565b82800160010185558215612f3e579182015b82811115612f3e578251825591602001919060010190612f23565b50612f4a929150612f65565b5090565b604080518082019091526000808252602082015290565b610d6d91905b80821115612f4a5760008155600101612f6b56fe42454e544f3a3a6765745072696f72566f7465733a206e6f74207965742064657465726d696e656442454e544f3a3a64656c656761746542795369673a207369676e617475726520657870697265646f6e6c792074686520676f76206d61792063616c6c205f72657369676e496d706c656d656e746174696f6e42454e544f3a3a64656c656761746542795369673a20696e76616c6964207369676e617475726542454e544f3a3a5f7772697465436865636b706f696e743a20626c6f636b206e756d626572206578636565647320333220626974736f6e6c792074686520676f76206d61792063616c6c205f6265636f6d65496d706c656d656e746174696f6e454950373132446f6d61696e28737472696e67206e616d652c75696e7432353620636861696e49642c6164647265737320766572696679696e67436f6e747261637429536166654d6174683a206d756c7469706c69636174696f6e206f766572666c6f7742454e544f3a3a64656c656761746542795369673a20696e76616c6964206e6f6e636544656c65676174696f6e28616464726573732064656c6567617465652c75696e74323536206e6f6e63652c75696e743235362065787069727929a265627a7a723158203e36b32e1152bd0f54e5607070d7cc18ce578c55c04e7f8260e10e88cffdd3f064736f6c63430005110032",
  "source": "pragma solidity 0.5.17;\n\nimport \"./BENTO.sol\";\n\ncontract BENTODelegationStorage {\n    /**\n     * @notice Implementation address for this contract\n     */\n    address public implementation;\n}\n\ncontract BENTODelegatorInterface is BENTODelegationStorage {\n    /**\n     * @notice Emitted when implementation is changed\n     */\n    event NewImplementation(address oldImplementation, address newImplementation);\n\n    /**\n     * @notice Called by the gov to update the implementation of the delegator\n     * @param implementation_ The address of the new implementation for delegation\n     * @param allowResign Flag to indicate whether to call _resignImplementation on the old implementation\n     * @param becomeImplementationData The encoded bytes data to be passed to _becomeImplementation\n     */\n    function _setImplementation(address implementation_, bool allowResign, bytes memory becomeImplementationData) public;\n}\n\ncontract BENTODelegateInterface is BENTODelegationStorage {\n    /**\n     * @notice Called by the delegator on a delegate to initialize it for duty\n     * @dev Should revert if any issues arise which make it unfit for delegation\n     * @param data The encoded bytes data for any initialization\n     */\n    function _becomeImplementation(bytes memory data) public;\n\n    /**\n     * @notice Called by the delegator on a delegate to forfeit its responsibility\n     */\n    function _resignImplementation() public;\n}\n\n\ncontract BENTODelegate is BENTO, BENTODelegateInterface {\n    /**\n     * @notice Construct an empty delegate\n     */\n    constructor() public {}\n\n    /**\n     * @notice Called by the delegator on a delegate to initialize it for duty\n     * @param data The encoded bytes data for any initialization\n     */\n    function _becomeImplementation(bytes memory data) public {\n        // Shh -- currently unused\n        data;\n\n        // Shh -- we don't ever want this hook to be marked pure\n        if (false) {\n            implementation = address(0);\n        }\n\n        require(msg.sender == gov, \"only the gov may call _becomeImplementation\");\n    }\n\n    /**\n     * @notice Called by the delegator on a delegate to forfeit its responsibility\n     */\n    function _resignImplementation() public {\n        // Shh -- we don't ever want this hook to be marked pure\n        if (false) {\n            implementation = address(0);\n        }\n\n        require(msg.sender == gov, \"only the gov may call _resignImplementation\");\n    }\n}\n",
  "sourcePath": "/home/dev/Documents/work/bento/contracts/token/BENTODelegate.sol",
  "compiler": {
    "name": "solc",
    "version": "0.5.17+commit.d19bba13.Linux.g++"
  },
  "schemaVersion": "3.2.4",
  "updatedAt": "2020-09-06T17:42:36.836Z",
  "networkType": "ethereum",
  "devdoc": {
    "methods": {
      "_becomeImplementation(bytes)": {
        "params": {
          "data": "The encoded bytes data for any initialization"
        }
      },
      "_setIncentivizer(address)": {
        "params": {
          "incentivizer_": "The address of the rebaser contract to use for authentication."
        }
      },
      "_setPendingGov(address)": {
        "params": {
          "pendingGov_": "The address of the rebaser contract to use for authentication."
        }
      },
      "_setRebaser(address)": {
        "params": {
          "rebaser_": "The address of the rebaser contract to use for authentication."
        }
      },
      "allowance(address,address)": {
        "details": "Function to check the amount of tokens that an owner has allowed to a spender.",
        "params": {
          "owner_": "The address which owns the funds.",
          "spender": "The address which will spend the funds."
        },
        "return": "The number of tokens still available for the spender."
      },
      "approve(address,uint256)": {
        "details": "Approve the passed address to spend the specified amount of tokens on behalf of msg.sender. This method is included for ERC20 compatibility. increaseAllowance and decreaseAllowance should be used instead. Changing an allowance with this method brings the risk that someone may transfer both the old and the new allowance - if they are both greater than zero - if a transfer transaction is mined before the later approve() call is mined.",
        "params": {
          "spender": "The address which will spend the funds.",
          "value": "The amount of tokens to be spent."
        }
      },
      "balanceOf(address)": {
        "params": {
          "who": "The address to query."
        },
        "return": "The balance of the specified address."
      },
      "balanceOfUnderlying(address)": {
        "params": {
          "who": "The address to query."
        },
        "return": "The underlying balance of the specified address."
      },
      "decreaseAllowance(address,uint256)": {
        "details": "Decrease the amount of tokens that an owner has allowed to a spender.",
        "params": {
          "spender": "The address which will spend the funds.",
          "subtractedValue": "The amount of tokens to decrease the allowance by."
        }
      },
      "delegate(address)": {
        "params": {
          "delegatee": "The address to delegate votes to"
        }
      },
      "delegateBySig(address,uint256,uint256,uint8,bytes32,bytes32)": {
        "params": {
          "delegatee": "The address to delegate votes to",
          "expiry": "The time at which to expire the signature",
          "nonce": "The contract state required to match the signature",
          "r": "Half of the ECDSA signature pair",
          "s": "Half of the ECDSA signature pair",
          "v": "The recovery byte of the signature"
        }
      },
      "delegates(address)": {
        "params": {
          "delegator": "The address to get delegatee for"
        }
      },
      "getCurrentVotes(address)": {
        "params": {
          "account": "The address to get votes balance"
        },
        "return": "The number of current votes for `account`"
      },
      "getPriorVotes(address,uint256)": {
        "details": "Block number must be a finalized block or else this function will revert to prevent misinformation.",
        "params": {
          "account": "The address of the account to check",
          "blockNumber": "The block number to get the vote balance at"
        },
        "return": "The number of votes the account had as of the given block"
      },
      "increaseAllowance(address,uint256)": {
        "details": "Increase the amount of tokens that an owner has allowed to a spender. This method should be used instead of approve() to avoid the double approval vulnerability described above.",
        "params": {
          "addedValue": "The amount of tokens to increase the allowance by.",
          "spender": "The address which will spend the funds."
        }
      },
      "initialize(string,string,uint8,address,uint256)": {
        "params": {
          "decimals_": "ERC-20 decimal precision of this token",
          "name_": "ERC-20 name of this token",
          "symbol_": "ERC-20 symbol of this token"
        }
      },
      "mint(address,uint256)": {
        "details": "Limited to onlyMinter modifier"
      },
      "rebase(uint256,uint256,bool)": {
        "details": "The supply adjustment equals (totalSupply * DeviationFromTargetRate) / rebaseLag     Where DeviationFromTargetRate is (MarketOracleRate - targetRate) / targetRate     and targetRate is CpiOracleRate / baseCpi"
      },
      "transfer(address,uint256)": {
        "details": "Transfer tokens to a specified address.",
        "params": {
          "to": "The address to transfer to.",
          "value": "The amount to be transferred."
        },
        "return": "True on success, false otherwise."
      },
      "transferFrom(address,address,uint256)": {
        "details": "Transfer tokens from one address to another.",
        "params": {
          "from": "The address you want to send tokens from.",
          "to": "The address you want to transfer to.",
          "value": "The amount of tokens to be transferred."
        }
      }
    }
  },
  "userdoc": {
    "methods": {
      "_acceptGov()": {
        "notice": "lets msg.sender accept governance     "
      },
      "_becomeImplementation(bytes)": {
        "notice": "Called by the delegator on a delegate to initialize it for duty"
      },
      "_resignImplementation()": {
        "notice": "Called by the delegator on a delegate to forfeit its responsibility"
      },
      "_setIncentivizer(address)": {
        "notice": "sets the incentivizer"
      },
      "_setPendingGov(address)": {
        "notice": "sets the pendingGov"
      },
      "_setRebaser(address)": {
        "notice": "sets the rebaser"
      },
      "balanceOfUnderlying(address)": {
        "notice": "Currently returns the internal storage amount"
      },
      "constructor": "Construct an empty delegate",
      "delegate(address)": {
        "notice": "Delegate votes from `msg.sender` to `delegatee`"
      },
      "delegateBySig(address,uint256,uint256,uint8,bytes32,bytes32)": {
        "notice": "Delegates votes from signatory to `delegatee`"
      },
      "delegates(address)": {
        "notice": "Delegate votes from `msg.sender` to `delegatee`"
      },
      "getCurrentVotes(address)": {
        "notice": "Gets the current votes balance for `account`"
      },
      "getPriorVotes(address,uint256)": {
        "notice": "Determine the prior number of votes for an account as of a block number"
      },
      "initialize(string,string,uint8,address,uint256)": {
        "notice": "Initialize the new money market"
      },
      "maxScalingFactor()": {
        "notice": "Computes the current max scaling factor"
      },
      "mint(address,uint256)": {
        "notice": "Mints new tokens, increasing totalSupply, initSupply, and a users balance."
      },
      "rebase(uint256,uint256,bool)": {
        "notice": "Initiates a new rebase operation, provided the minimum time period has elapsed."
      },
      "totalSupply()": {
        "notice": "Computes the current totalSupply"
      }
    }
  }
}